:10000000FC7F002039080000290800002D080000AE
:1000100000000000000000000000000000000000E0
:100020000000000000000000000000003108000097
:100030000000000000000000350800009D090000DD
:1000400010B5064C2378002B07D1054B002B02D0AE
:10005000044800E000BF0123237010BD5C000020B5
:1000600000000000DC1B000008B5084B002B03D08B
:100070000748084900E000BF07480368002B03D089
:10008000064B002B00D0984708BDC046000000007A
:10009000DC1B000060000020580000200000000071
:1000A000064B0322104002040549586808401043DB
:1000B0005860DA695107FCD47047C046001400420A
:1000C000FFFFFCFF38B5284A284B5A805A7852B2B5
:1000D000002AFBDB264B20211A6A264D0A431A62AE
:1000E0002B68012213432B602A680123214C1A42FA
:1000F000FAD1E2691A42F7D11423236041001E4865
:1001000001F094FB421EE068FF231A40984310431D
:10011000E0602368022213432360EA69154B9107CC
:10012000FBD45A8B30218A4310210A435A83EB694E
:1001300001205A07FBD4114B02241A7802431A708B
:100140000F4B0F22197891431970197821431970B8
:100150000C490C782043087019780A401A701A78F4
:1001600020210A431A7038BD17400000000C0040DF
:100170000004004000140042006CDC0256440041C0
:100180003B44004157440041F7B500230F1C019246
:100190001D1C994254D001212A4E4000084333705F
:1001A000C1B2294B0322588B1C1C000910400128A6
:1001B00004D05B8B1B091A40022AF2D1606AC00A84
:1001C000C00208436062217E1F4B0122880708D4C9
:1001D000197E1142F7D05968C02292020A435A6030
:1001E00003E05B8B9B08134201D0002528E03270AE
:1001F000237E9907FCD5154A154B117801251970F6
:100200006268BD4212D0134B022013406360FFF7B7
:1002100047FF33785A1C3270227E9007FCD50B4979
:100220000B480A780135C254EDB2E9E78023DB02BE
:10023000134363600199002902D00320FFF730FFC8
:10024000281CFEBD78000020001400422814004243
:1002500095000020FFFFFBFF38B50A245820062137
:100260000122FFF791FF0E4D2B78012B04D16B7803
:10027000012B01D1012012E0592006210122FFF7B4
:1002800083FF2B78012B02D16B78012BF2D0013C3C
:10029000002CE3D18022034BD2005A61201C38BDD0
:1002A000950000200044004108B58022034BD20095
:1002B0009A6003489A61FFF705FF08BD00440041BA
:1002C000400D0300154A164B1178002909D1154934
:1002D000187809784118C9B2197080201249400075
:1002E000C86111780131C9B211701978F02902D8AA
:1002F0001978092909D80B4908784042C0B208701A
:10030000187809784118C9B2197012781B789A4286
:1003100003D18022044B5200DA617047790000203B
:1003200001000020000000200044004110B5C36916
:100330009C07FCD403680224A3430360C46901231F
:100340001C42FBD10468234303600368DC07FCD430
:10035000C46901231C42FBD1C469DC401C42F7D1B3
:10036000084B1A430260C3695A07FCD4C0239B029E
:1003700043608181C3699C07FCD403680222134354
:10038000036010BD04000040037EDA07FCD5018540
:1003900070470000027E01235107FBD5428B1A42B1
:1003A00007D1428BDA401A4203D1428B92081A429B
:1003B00002D0034B01221A70008DC0B27047C046B4
:1003C0007A00002070B50368041C988B1A1C082161
:1003D000FF32084226D080209983987211235370EF
:1003E0004021144B917150715E68134DC0202E4016
:1003F000800506435E605E693540284358610F48BA
:1004000018600F4818615D680E4828408025AD02CD
:10041000284358605868800B80035860002351714E
:10042000237105E0137ADA0602D5201C00F0F0FAF9
:10043000207970BD98010020FFFFFF8F98000020F9
:1004400018010020FF3F00F0002303714371044BAB
:10045000016083600B78022213430B707047C04623
:10046000C503000038B5364B2021DA6901200A4364
:10047000DA61344B06241A7802431A70324B0F2289
:100480001978914319701978214319702F490C7804
:100490002043087019780A401A701A7860210A43BC
:1004A0001A702B4B2B4A5A805A7852B2002AFBDB27
:1004B000294B01211A780A431A709A78D107FCD483
:1004C00026480268510B1F221140914200D105219C
:1004D00011408C011D8D2249294021431985046852
:1004E000A10C0A401F2A00D11D221C8D1F210A4089
:1004F0008C4322431A8502680721D20D0A408A42A2
:1005000000D103220A40188D1103164A02400A4303
:100510001A8519787F220A401A701A780421124825
:100520000A431A7058621A890C218A431A811A895F
:1005300001218A431A810021802201F0D0F938BDBF
:1005400000040040584400413C44004159440041EB
:10055000000C004006400000005000412460800074
:100560003FF8FFFFFF8FFFFF98010020F7B5141C35
:100570001F4A5F0101971D1CD319061C5869271CCF
:100580004000400F03301033C74006D00F1C8022BC
:10059000596812060A435A6009E02F1C7B1E9F41CE
:1005A000144BBF01FF18381C221C01F08FF9019970
:1005B0000F48083542181761131C5269A104920BA9
:1005C000890C92030A435A6159690B4A0A405A61DD
:1005D0006B01F3180222DA715979802252420A43E0
:1005E0005A716B01F318DB799A07FAD5201CFEBD0E
:1005F0009801002018010020FF3F00F0F8B51A4EC6
:10060000051C3378141C002B12D1184B184A1A649D
:100610005A6C920B92035A64586C164A02405A6400
:10062000A2235B00EA5C40200243EA5401233370BA
:100630004827FF37EA5D0123134012D00B4B5A6C59
:100640009204920CA24202D25C6CA404A40C081C7A
:10065000221C074901F03AF90123EB5500233370BE
:1006600000E01C1C201CF8BD7B000020980100202D
:10067000D8000020FF3F00F0FF30837920220029BE
:1006800000D110221343837170470000084BFF30E4
:100690005A69920B92035A61022303728279802372
:1006A0005B4213438371037A9A07FCD57047C046B7
:1006B0009801002080235B421943C9B281727047C0
:1006C00070B5A02303225B00C254134B134A5C6C29
:1006D000C021144089050C4346255C64FF35402445
:1006E00044550F4D30261D6490256D0046555D6BB9
:1006F00015402943922559636D0080214155094DCC
:100700001D63B0256D0044555C6F22405A67B223CB
:100710005B00C15470BDC04698010020FFFFFF8FF1
:10072000D80000205801002030B5364A1E235168F9
:100730000820994302231943516033498A690243CF
:100740008A613248324A9082908A03439382D36806
:100750009807FCD52F4B012018701878C40704D5D2
:100760002C48407840B20028F7DB01209860587888
:1007700040B20028FBDB284C26484460587840B241
:100780000028FBDB82242348E4014480587840B2EF
:100790000028FBDB908C8024A0439084D068C506A1
:1007A000FCD51E4C1A48C462D4681948E506FBD52E
:1007B000848C1B4D2C438484D4681548E506FBD5F6
:1007C000848C02252C438484D0680406FCD5104810
:1007D000C0684506F8D5D068C406FCD500229A60EA
:1007E0005A7852B2002AFBDB0E480A4A50605A7807
:1007F00052B2002AFBDB00230B724B728B72CB725E
:1008000030BDC04600400041000400400C0600001E
:1008100000080040000C004001050100B805FF7D04
:10082000040A0000000703000EBEFEE70DBEFEE74F
:1008300005BEFEE702BEFEE70E4A0F4838B582420B
:1008400004D10E4A0E4B93420ED10AE00D4C944255
:10085000F7D00023D1188842F3D9E55804330D604E
:10086000F8E700F011F804E09342FAD2002102C345
:10087000FAE7FEE7000000205C000020A80300204B
:100880005C000020E01B000070B5FFF70DFD384C48
:100890002368261C013329D0364D231DE2B22B607C
:1008A000002A23D1344B197801231940334B0AD144
:1008B0001868334A904201D1196017E01A60314A32
:1008C000013A002AFCD11A602E4B013B002BFCD1CF
:1008D000FFF7C2FC002809D1336883F30888FF239F
:1008E0009C43294B9C602B681B681847FFF71CFF33
:1008F00062B600F0C9FD00F057F8244B8022520088
:100900009A60802292009A609A61802212029A6014
:100910009A611F4B1F4A041C5A601B4AC021106A6F
:1009200009060002000A0143116200229A600722B0
:100930001A60A368201C9847174B002801D0012299
:100940001A701A78002A05D0002000F091FA00F001
:1009500017FBFCE71B78002BEBD100F009FE002809
:10096000E7D0012000F084FA00F00AFBFCE7C04663
:10097000002000001802002038040040FC7F002006
:100980003581730748E8010000ED00E000440041B4
:1009900010E000E0E70300007C00002008B5FFF74E
:1009A00091FC00F0C9FA08BD10B5054B054C236059
:1009B000FFF758FD201C2168FFF746FD201C10BDE5
:1009C000005000411C02002070B5051CC0B0081C7E
:1009D000161C0C1C00F08BFF40006A4603230230FB
:1009E0005370107076080123E218013A11785A000A
:1009F000002906D1281C69460023FFF7B7FD40B047
:100A000070BDB342F6DA684681520133ECE700006C
:100A1000F7B5BA4A04681378B949271CFF37051C93
:100A2000102038720B705378B648B74E0370937825
:100A30003380D178338809020B4333801179B34B6B
:100A40001980517918880902084318809079B049B3
:100A50000880D2790888120202430A8040227A7103
:100A6000A84F3A78A64F120238780F1C0243A948C3
:100A70008446181C624500D1C2E020DC8021490078
:100A80008A4200D16EE109DC812A00D192E0822AFB
:100A900000D195E0802A00D064E18BE081235B00E7
:100AA0009A4200D1CFE000DA58E1C0239B009A427D
:100AB00000D157E1984B9A4200D14FE152E1902387
:100AC0001B019A4269D015DCD023DB009A4222D068
:100AD00088231B019A4269D0A023DB009A4200D0F0
:100AE00040E1201CFFF7D2FD3188286889B2FFF76A
:100AF000E1FD3BE1894B9A4200D12FE100DC31E17D
:100B0000874B9A4200D11DE1864B9A4200D029E1E1
:100B100033886B7122E133881B0A012B08D10B88C3
:100B200012222868934201D80A8892B27E4911E1C4
:100B300033881B0A022B08D10B8843222868934272
:100B400001D80A8892B2794904E133881B0A032B41
:100B500000D007E13388DBB2012B17D0002B07D080
:100B6000022B00D0FEE00A882868D2B2704911E05A
:100B7000042201A86F4900F0A9FE3B8804222868DE
:100B8000934201D83A8892B201A9E3E00A88286822
:100B90006949D2B2FFF718FFE8E03388201C2B71B7
:100BA000FFF774FD201CFFF78BFDDFE0291C01C956
:100BB0000122CFE0614900230B8028680222CAE0AD
:100BC0005E4900220A801888502210405C4A10704A
:100BD0001E880F20304018801888032800D9C1E0F3
:100BE00012781B8808335B01E418A379002A01D02E
:100BF0009B0600E0DB06DB0F0B8028680222A9E0E1
:100C000019887F2291434E4AC9B2117018880F216A
:100C1000014019803188002900D0A3E019880029FB
:100C200000D19FE01988032900D99BE012781B8826
:100C300008335B01E318002A02D020225A718DE0AC
:100C4000102159718AE002887F239A433C4BD2B22B
:100C50001A7001880F220A4002803288002A00D0D0
:100C600080E00288002A00D17CE00288032A00D9B3
:100C700078E01B78002B1FD0038808335B01E31852
:100C80009B799A066AD50388202208335B01E31812
:100C90001A71038808335B01E318DB795F065DD5C1
:100CA0000388402208335B01E318DA7103880222CB
:100CB00008335B01E3181EE0038808335B01E31887
:100CC0009B79D9064AD50388102208335B01E318C3
:100CD0001A71038808335B01E318DB799A063DD566
:100CE0000388202208335B01E318DA7103880122AC
:100CF00008335B01E3181A7130E0C0469800002009
:100D00007E00002084000020860000208800002053
:100D100082000020020300000103000021200000E7
:100D2000A121000021220000301900000400002051
:100D30001E1900001419000018190000800000207E
:100D40007D0000200B8808222868934201D80A8879
:100D500092B207490023FFF709FC07E0201CFFF7C8
:100D600095FC03E0201C0121FFF786FCF7BDC0467F
:100D70004800002007B5054B0122019001A9186821
:100D8000131CFFF7F3FB01200EBDC0461C02002020
:100D900013B5054B6C4607341868211C0122FFF778
:100DA0002DFC207816BDC0461C02002010B5074C53
:100DB000201CFFF707FB031C0020834205D022689C
:100DC0004823FF33D05C0123184010BD1C020020D3
:100DD00010B5054A0C1C031C191C10680123221CA9
:100DE000FFF7C4FB201C10BD1C02002070B5084C8E
:100DF000061C201C0D1CFFF7E5FA0023984205D0C5
:100E00002068311C2A1CFFF7F9FB031C181C70BD5D
:100E10001C020020F8B50C4C051C201C0E1CFFF712
:100E2000D1FA0023271C341C98420AD0002C07D08A
:100E3000291C221C3868FFF7E1FB241A2D18F5E75E
:100E4000331C181CF8BDC0461C02002008B5031C4A
:100E5000081C111C9847044B802212025A61034B54
:100E600064221A8008BDC046004400418E00002064
:100E7000012805D1054B064A1A60064B187004E09C
:100E8000002802D1044A014B1A6070478C020020EE
:100E90006419000094000020B019000030B50A1C4D
:100EA0001C4985B00978031C00292AD0042A01D1E5
:100EB000006804E0022A01D1008800E000785200B6
:100EC00004A98B180B3B9C1AA3420BD00F210140A5
:100ED000092902D83025294300E03731197000096B
:100EE000013BF1E701A930230B7078234B700A20F6
:100EF0008B1898700D20D870074B04321B68D86887
:100F000003E005490968C868191CFFF79FFF05B091
:100F100030BDC0468A0000208C02002072B6EFF37C
:100F20000883044A1360036883F3088843681847FA
:100F30007047C046900200200E4B1A88002A09D044
:100F40001A88013A92B21A80002A03D180220A4BF1
:100F500012029A61094B1A88002A09D01A88013AAC
:100F600092B21A80002A03D18022034B92009A6128
:100F70007047C0468E000020004400418C000020D5
:100F8000F0B591B008A9CF4A0B1C31CA31C351CA80
:100F900051C360CA60C3CC4BCC489A687A255203CF
:100FA000520F92005258CA4902609C68A4B2624330
:100FB0000C60C84900240A60C74A1460C74C2570F9
:100FC000C74CC84D2368281C1B694021984700283E
:100FD00006D0C54B802292005A61C44B64221A800D
:100FE000C34B00221860C34B1D60C34BC24DC04FA2
:100FF0001A602A683B689A42E2D2BE4B1B681A7894
:10100000FF2A00D11FE2232A00D0F6E1BB4E33783D
:10101000002B06D0B24BBA491B680222D868FFF7F2
:1010200015FFAE4B1B78532B40D13B682A68934287
:101030001ED9B04801322A609A1AB24B01681B6867
:1010400001310160B04E9A4201D2326000E033605B
:10105000A14832680068049000F038FC33682968C1
:101060005A182A60A34A1668F1181160A74A13702B
:101070002B68013B2B609F4B1A68013A1A60A34B07
:10108000A04A1B7811688B420ED222689248C91A76
:10109000006892699047002806D0934B8022920006
:1010A0005A61924B64221A80C04694E1522B0ED1B1
:1010B0008948944A2368006811685B6903909847DF
:1010C000894B802212025A616422914B0DE04F2B12
:1010D00005D1814B8B4A1B6812681A707BE1482B43
:1010E00005D17D4B874A1B6812681A8073E1572B24
:1010F00005D1794B834A1B6812681A606BE16F2B2C
:1011000003D1754B0121186807E0682B08D1724B99
:101110007C481B6802211B880360FFF7BFFE5AE171
:10112000772B06D16C4B77481B6804211B68036042
:10113000F3E7472B13D1734B1868FFF7EFFE754B9E
:101140001B6883F3088862B6734B1B78002B00D1B1
:1011500041E1634B06201B681B6898473BE1542B19
:1011600004D1012333705E4B1B6864E04E2B0CD11D
:101170003378002B06D15A4B61491B680222D8688C
:10118000FFF764FE0023337025E1562B57D1236807
:101190006249D8680122FFF759FE23686049D86880
:1011A0000322FFF753FE5F4D2368291CD8680122F4
:1011B000FFF74CFE23685C49D8680D22FFF746FE16
:1011C0002368291CD8680122FFF740FE494F4A4D89
:1011D0005649002339602B603A1C281C13685E1C9A
:1011E00016601B780593002B03D00368013303605E
:1011F000F4E73B4E2A683368D868FFF727FE336868
:101200004849D8680122FFF721FE0599296048491D
:101210003960384A1368581C10601B78002B04D0C2
:10122000354B1A6801321A60F3E733682A68D868C8
:10123000FFF70CFE3368D86831490222C9E0314A11
:10124000582B17D1214E234D366813682A68B100F8
:1012500093420AD21C4D5808E861364828801A4D3E
:10126000287DC607FBD55B18F2E71D4B32491B688A
:10127000D868ADE0592B7CD11268174B2F49002A52
:1012800002D11B680B606FE00F4D086819686B682E
:101290000D4E8025AB4392087360002A64D0284B22
:1012A000094D2B80084E337DDD07FBD50023074D0C
:1012B0002D680195AD08AB4246D3224D024E3580D4
:1012C00049E0C046441900000040004144020020AB
:1012D0003C02002038020020880200203402002056
:1012E0008C02002048020020004400418C000020B5
:1012F0002C02002030020020400200208A00002042
:10130000A419000094020020980200202802002066
:101310008E00002090020020940000208019000020
:10132000A919000082190000CC19000084190000DE
:101330009019000002A5FFFF9919000090000020FD
:1013400044A5FFFF04A5FFFF9342B6D09D00465978
:1013500001334E51ABE7404E357DEE07FBD59D0086
:1013600049194019D21A98E73C4B3D491B68D86887
:101370002EE05A2B2FD13B4B17681D680026EF1922
:10138000BD4206D02878311C00F014F90135061C46
:10139000F6E7324B34491B680122D868FFF756FD47
:1013A00007230F223240111C36093031092A00DD93
:1013B00007311820C0186A468154013BF1D22368D6
:1013C00006A9D8680822FFF741FD23682749D86895
:1013D0000322FFF73BFD264B7A221A70254B002291
:1013E0001A60254B1B7893422DD01C4B23491B6858
:1013F0000122D868FFF72AFD25E0111C3039C8B258
:101400001C4B092804D81D682A01114319601AE0F1
:10141000111C4139052903D81E68373A310106E00D
:10142000111C6139052904D81868573A01010A438B
:1014300008E02C2A03D10B4A1968116001E00C491D
:101440000A7000221A600E4B1A6801321A600D4BA6
:101450001A680132CAE5C046004000418C020020F3
:101460009D19000088020020A1190000A3190000A6
:1014700034020020940200208A000020A7190000F6
:10148000400200203002002010B51C4B01201A78C9
:10149000022402431A701A4B0F22197891431970D3
:1014A00019782143197017490C782043087019786E
:1014B0000A401A701A7820210A431A70124B04212C
:1014C0001A6A0A431A62114B114A5A805A7852B268
:1014D000002AFBDBC4220F480F499203FEF726FFC8
:1014E0000E4A002313700E4A13700E4A13700E4AF0
:1014F00013700E4A13700E4A137010BD4A44004117
:10150000354400414B44004100040040000C0040C1
:1015100014400000000800422AF600009C0200204F
:10152000230300209D020020A002002024030020AD
:101530002103002008B5C1B20248FEF725FF0120B3
:1015400008BDC04600080042024B187E4007C00F8D
:101550007047C0460008004208B5FFF7F5FF0028B5
:10156000FBD00248FEF716FF08BDC0460008004247
:1015700008B5FFF7E9FF0023984205D0FFF7ECFF1D
:10158000031C233B5A425341181C08BD70B5041C70
:101590000D1C4618B44204D02078FFF7CBFF01346D
:1015A000F8E7281C70BD10B5041CFFF7D5FF2070AC
:1015B000012010BD0B0A5840034B4000C05A0902DD
:1015C000484080B27047C046DA190000F7B50024E1
:1015D000051C0F1C261CBC4220D0FFF7BDFF114B81
:1015E000C0B21B780190002B1AD1311CFFF7E2FF2B
:1015F0000D4B061C1A88002A04D10C4A11782A1CAB
:10160000002907D001996A1C2970802F02D11988FE
:10161000013919800134A4B2151CDCE7301C00E04C
:101620000120FEBD210300209E0200202203002095
:10163000F0B53E4E85B0002203900C1C32703C4B3E
:10164000914201D1012201E03A490C801A707F23B6
:101650001C4201D080349C43FFF77EFF3378C0B238
:10166000002B07D000253570FFF776FF3378C0B226
:10167000AB4236D1432803D0712853D01528EBD183
:10168000012300930120FFF755FF0098FFF752FF59
:1016900000998025C843C0B2FFF74CFF039B002789
:1016A0000293244A1388002B1DD121490193097804
:1016B000002918D10198FFF73DFF391C0198FFF769
:1016C00079FF013D071C002DEBD1000AC0B2FFF7E6
:1016D00031FFF8B2FFF72EFFFFF73EFF3378002B04
:1016E0000AD035701FE00299013B09781380029BF4
:1016F000019101330293DDE7C0B2062807D1009BB8
:1017000003990133DBB280310093803C0391002CBC
:10171000B8D10420FFF70EFFFFF71EFF044B012591
:101720001C7000E00025281C05B0F0BD210300203E
:10173000220300209E020020F0B5384C87B0002321
:1017400001902370994201D1012301E0344A1180B4
:10175000344A642613704320FFF7ECFE324FFFF744
:10176000F3FE002803D1002F03D0013FF7E7002F3D
:1017700003D1013E002EEED14DE00125FFF7ECFE36
:101780002378002B38D1C0B20290012805D004285C
:101790003DD10620FFF7CEFE39E005AE0221301C18
:1017A000FFF714FF01988021FFF710FF23780390C3
:1017B000002B18D1FFF7D0FE0702FFF7CDFEBFB216
:1017C00023783F18BFB2012B0DD0039B9F4207D156
:1017D0003378AB4204D1EB437278DBB29A4204D047
:1017E0001820FFF7A7FE002303E00620FFF7A2FE64
:1017F000029B2278002A02D0002626700BE0012BE3
:1018000005D1019A6B1C8032DDB20192B6E7054A20
:10181000002313700126301C07B0F0BD2103002007
:101820009E0200202203002000350C00002934D045
:101830000123002210B488422CD301242407A142A2
:1018400004D2814202D209011B01F8E7E400A1425F
:1018500004D2814202D249005B00F8E7884201D3FA
:10186000401A1A434C08A04202D3001B5C082243D2
:101870008C08A04202D3001B9C082243CC08A04243
:1018800002D3001BDC082243002803D01B0901D02F
:101890000909E3E7101C10BC7047002801D00020A4
:1018A000C04307B4024802A14018029003BDC046DD
:1018B000190000000029F0D003B5FFF7B9FF0EBCF6
:1018C0004243891A1847C0467047C04610B50023E6
:1018D000934203D0CC5CC4540133F9E710BD031C20
:1018E0008218934202D019700133FAE7704700233F
:1018F000C25C0133002AFBD1581E7047F8B5C046C0
:10190000F8BC08BC9E467047F8B5C046F8BC08BC99
:101910009E467047040309044479676D6100526173
:1019200069736520426F6F746C6F6164657200004B
:10193000120100020200004009120022000201020E
:10194000000100000800000010000000200000005E
:1019500040000000800000000001000000020000C4
:10196000000400003515000059150000491500005D
:101970008D150000A7150000311600003917000072
:10198000760020004D617920203620323031390038
:1019900031343A34383A333600580A0D00590A0DBA
:1019A000005A00230A0D003E00322E3000000000D5
:1019B000750D0000910D0000AD0D0000D10D00006F
:1019C000ED0D0000D10D0000150E00005B417264AA
:1019D00075696E6F3A58595A5D0000002110422017
:1019E00063308440A550C660E770088129914AA100
:1019F0006BB18CC1ADD1CEE1EFF131121002733277
:101A00005222B5529442F772D662399318837BB34F
:101A10005AA3BDD39CC3FFF3DEE362244334200406
:101A20000114E664C774A44485546AA54BB528859F
:101A30000995EEE5CFF5ACC58DD553367226111656
:101A40003006D776F6669556B4465BB77AA71997EF
:101A50003887DFF7FEE79DD7BCC7C448E5588668DE
:101A6000A7784008611802282338CCC9EDD98EE93F
:101A7000AFF9488969990AA92BB9F55AD44AB77AB6
:101A8000966A711A500A333A122AFDDBDCCBBFFB8F
:101A90009EEB799B588B3BBB1AABA66C877CE44CC6
:101AA000C55C222C033C600C411CAEED8FFDECCDDF
:101AB000CDDD2AAD0BBD688D499D977EB66ED55E96
:101AC000F44E133E322E511E700E9FFFBEEFDDDF2F
:101AD000FCCF1BBF3AAF599F788F8891A981CAB1BB
:101AE000EBA10CD12DC14EF16FE18010A100C230ED
:101AF000E3200450254046706760B9839893FBA3A8
:101B0000DAB33DC31CD37FE35EF3B1029012F3223C
:101B1000D2323542145277625672EAB5CBA5A895F7
:101B200089856EF54FE52CD50DC5E234C324A0148C
:101B300081046674476424540544DBA7FAB7998787
:101B4000B8975FE77EF71DC73CD7D326F2369106DC
:101B5000B01657667676154634564CD96DC90EF9CF
:101B60002FE9C899E9898AB9ABA94458654806782C
:101B70002768C018E1088238A3287DCB5CDB3FEBE7
:101B80001EFBF98BD89BBBAB9ABB754A545A376A7C
:101B9000167AF10AD01AB32A923A2EFD0FED6CDDB7
:101BA0004DCDAABD8BADE89DC98D267C076C645CCC
:101BB000454CA23C832CE01CC10C1FEF3EFF5DCFC7
:101BC0007CDF9BAFBABFD98FF89F176E367E554E1C
:101BD000745E932EB23ED10EF01E00000000000095
:101BE00001140000090243000201008032090400D0
:101BF0000001020200000524001001042402000577
:101C0000240600010524010001070583030800FFE5
:101C100009040100020A00000007058102400000DB
:101C2000070502024000000000C201000000080099
:0C1C3000690000004100000000000000FE
:0400000300000839B8
:00000001FF
